{
  "contractName": "WTIAAuction",
  "abi": [
    {
      "inputs": [
        {
          "internalType": "uint256",
          "name": "_endDate",
          "type": "uint256"
        },
        {
          "internalType": "uint256",
          "name": "_startPrice",
          "type": "uint256"
        },
        {
          "internalType": "address",
          "name": "_token",
          "type": "address"
        },
        {
          "internalType": "uint256",
          "name": "_tokenAmount",
          "type": "uint256"
        }
      ],
      "name": "createAuction",
      "outputs": [],
      "stateMutability": "payable",
      "type": "function",
      "payable": true
    },
    {
      "inputs": [],
      "name": "getPrice",
      "outputs": [
        {
          "internalType": "uint256",
          "name": "",
          "type": "uint256"
        }
      ],
      "stateMutability": "view",
      "type": "function",
      "constant": true
    },
    {
      "inputs": [],
      "name": "placeBid",
      "outputs": [],
      "stateMutability": "payable",
      "type": "function",
      "payable": true
    },
    {
      "inputs": [],
      "name": "expired",
      "outputs": [],
      "stateMutability": "nonpayable",
      "type": "function"
    }
  ],
  "bytecode": "0x608060405234801561001057600080fd5b50611005806100206000396000f3fe60806040526004361061003f5760003560e01c80634c2067c71461004457806398d5fdca1461005b578063b1cb48ef14610086578063ecfc7ecc146100a2575b600080fd5b34801561005057600080fd5b506100596100ac565b005b34801561006757600080fd5b506100706103b6565b60405161007d9190610b57565b60405180910390f35b6100a0600480360381019061009b9190610c01565b610470565b005b6100aa6105e5565b005b600160030160009054906101000a900473ffffffffffffffffffffffffffffffffffffffff1673ffffffffffffffffffffffffffffffffffffffff163373ffffffffffffffffffffffffffffffffffffffff161461010957600080fd5b60006101136103b6565b1461011d57600080fd5b60008054906101000a900473ffffffffffffffffffffffffffffffffffffffff1673ffffffffffffffffffffffffffffffffffffffff1663095ea7b33060008054906101000a900473ffffffffffffffffffffffffffffffffffffffff1673ffffffffffffffffffffffffffffffffffffffff166370a08231306040518263ffffffff1660e01b81526004016101b39190610c77565b602060405180830381865afa1580156101d0573d6000803e3d6000fd5b505050506040513d601f19601f820116820180604052508101906101f49190610ca7565b6040518363ffffffff1660e01b8152600401610211929190610cd4565b6020604051808303816000875af1158015610230573d6000803e3d6000fd5b505050506040513d601f19601f820116820180604052508101906102549190610d35565b5060008054906101000a900473ffffffffffffffffffffffffffffffffffffffff1673ffffffffffffffffffffffffffffffffffffffff166323b872dd30600160030160009054906101000a900473ffffffffffffffffffffffffffffffffffffffff1660008054906101000a900473ffffffffffffffffffffffffffffffffffffffff1673ffffffffffffffffffffffffffffffffffffffff166370a08231306040518263ffffffff1660e01b81526004016103119190610c77565b602060405180830381865afa15801561032e573d6000803e3d6000fd5b505050506040513d601f19601f820116820180604052508101906103529190610ca7565b6040518463ffffffff1660e01b815260040161037093929190610d62565b6020604051808303816000875af115801561038f573d6000803e3d6000fd5b505050506040513d601f19601f820116820180604052508101906103b39190610d35565b50565b60008060016002015490506000600160000154905060006103e482600180015461099d90919063ffffffff16565b905060006103fb82856109b390919063ffffffff16565b905060004290506000610417858361099d90919063ffffffff16565b9050600061042e82856109c990919063ffffffff16565b90506000610445828961099d90919063ffffffff16565b905060008112156104615760009850505050505050505061046d565b80985050505050505050505b90565b816000806101000a81548173ffffffffffffffffffffffffffffffffffffffff021916908373ffffffffffffffffffffffffffffffffffffffff1602179055506040518060c001604052804281526020016104d486426109df90919063ffffffff16565b81526020018481526020013373ffffffffffffffffffffffffffffffffffffffff1681526020018373ffffffffffffffffffffffffffffffffffffffff16815260200182815250600160008201518160000155602082015181600101556040820151816002015560608201518160030160006101000a81548173ffffffffffffffffffffffffffffffffffffffff021916908373ffffffffffffffffffffffffffffffffffffffff16021790555060808201518160040160006101000a81548173ffffffffffffffffffffffffffffffffffffffff021916908373ffffffffffffffffffffffffffffffffffffffff16021790555060a082015181600501559050506105df816109f5565b50505050565b6105ed6103b6565b3410156105f957600080fd5b600160030160009054906101000a900473ffffffffffffffffffffffffffffffffffffffff1673ffffffffffffffffffffffffffffffffffffffff163373ffffffffffffffffffffffffffffffffffffffff16141561065757600080fd5b6000600160030160009054906101000a900473ffffffffffffffffffffffffffffffffffffffff1673ffffffffffffffffffffffffffffffffffffffff16346040516106a290610dca565b60006040518083038185875af1925050503d80600081146106df576040519150601f19603f3d011682016040523d82523d6000602084013e6106e4565b606091505b5050905080610728576040517f08c379a000000000000000000000000000000000000000000000000000000000815260040161071f90610e3c565b60405180910390fd5b60008054906101000a900473ffffffffffffffffffffffffffffffffffffffff1673ffffffffffffffffffffffffffffffffffffffff1663095ea7b33060008054906101000a900473ffffffffffffffffffffffffffffffffffffffff1673ffffffffffffffffffffffffffffffffffffffff166370a08231306040518263ffffffff1660e01b81526004016107be9190610c77565b602060405180830381865afa1580156107db573d6000803e3d6000fd5b505050506040513d601f19601f820116820180604052508101906107ff9190610ca7565b6040518363ffffffff1660e01b815260040161081c929190610cd4565b6020604051808303816000875af115801561083b573d6000803e3d6000fd5b505050506040513d601f19601f8201168201806040525081019061085f9190610d35565b5060008054906101000a900473ffffffffffffffffffffffffffffffffffffffff1673ffffffffffffffffffffffffffffffffffffffff166323b872dd303360008054906101000a900473ffffffffffffffffffffffffffffffffffffffff1673ffffffffffffffffffffffffffffffffffffffff166370a08231306040518263ffffffff1660e01b81526004016108f79190610c77565b602060405180830381865afa158015610914573d6000803e3d6000fd5b505050506040513d601f19601f820116820180604052508101906109389190610ca7565b6040518463ffffffff1660e01b815260040161095693929190610d62565b6020604051808303816000875af1158015610975573d6000803e3d6000fd5b505050506040513d601f19601f820116820180604052508101906109999190610d35565b5050565b600081836109ab9190610e8b565b905092915050565b600081836109c19190610eee565b905092915050565b600081836109d79190610f1f565b905092915050565b600081836109ed9190610f79565b905092915050565b8060008054906101000a900473ffffffffffffffffffffffffffffffffffffffff1673ffffffffffffffffffffffffffffffffffffffff166370a08231336040518263ffffffff1660e01b8152600401610a4f9190610c77565b602060405180830381865afa158015610a6c573d6000803e3d6000fd5b505050506040513d601f19601f82011682018060405250810190610a909190610ca7565b11610a9a57600080fd5b60008054906101000a900473ffffffffffffffffffffffffffffffffffffffff1673ffffffffffffffffffffffffffffffffffffffff166323b872dd3330846040518463ffffffff1660e01b8152600401610af793929190610d62565b6020604051808303816000875af1158015610b16573d6000803e3d6000fd5b505050506040513d601f19601f82011682018060405250810190610b3a9190610d35565b5050565b6000819050919050565b610b5181610b3e565b82525050565b6000602082019050610b6c6000830184610b48565b92915050565b600080fd5b610b8081610b3e565b8114610b8b57600080fd5b50565b600081359050610b9d81610b77565b92915050565b600073ffffffffffffffffffffffffffffffffffffffff82169050919050565b6000610bce82610ba3565b9050919050565b610bde81610bc3565b8114610be957600080fd5b50565b600081359050610bfb81610bd5565b92915050565b60008060008060808587031215610c1b57610c1a610b72565b5b6000610c2987828801610b8e565b9450506020610c3a87828801610b8e565b9350506040610c4b87828801610bec565b9250506060610c5c87828801610b8e565b91505092959194509250565b610c7181610bc3565b82525050565b6000602082019050610c8c6000830184610c68565b92915050565b600081519050610ca181610b77565b92915050565b600060208284031215610cbd57610cbc610b72565b5b6000610ccb84828501610c92565b91505092915050565b6000604082019050610ce96000830185610c68565b610cf66020830184610b48565b9392505050565b60008115159050919050565b610d1281610cfd565b8114610d1d57600080fd5b50565b600081519050610d2f81610d09565b92915050565b600060208284031215610d4b57610d4a610b72565b5b6000610d5984828501610d20565b91505092915050565b6000606082019050610d776000830186610c68565b610d846020830185610c68565b610d916040830184610b48565b949350505050565b600081905092915050565b50565b6000610db4600083610d99565b9150610dbf82610da4565b600082019050919050565b6000610dd582610da7565b9150819050919050565b600082825260208201905092915050565b7f5472616e73616374696f6e206661696c65642e00000000000000000000000000600082015250565b6000610e26601383610ddf565b9150610e3182610df0565b602082019050919050565b60006020820190508181036000830152610e5581610e19565b9050919050565b7f4e487b7100000000000000000000000000000000000000000000000000000000600052601160045260246000fd5b6000610e9682610b3e565b9150610ea183610b3e565b925082821015610eb457610eb3610e5c565b5b828203905092915050565b7f4e487b7100000000000000000000000000000000000000000000000000000000600052601260045260246000fd5b6000610ef982610b3e565b9150610f0483610b3e565b925082610f1457610f13610ebf565b5b828204905092915050565b6000610f2a82610b3e565b9150610f3583610b3e565b9250817fffffffffffffffffffffffffffffffffffffffffffffffffffffffffffffffff0483118215151615610f6e57610f6d610e5c565b5b828202905092915050565b6000610f8482610b3e565b9150610f8f83610b3e565b9250827fffffffffffffffffffffffffffffffffffffffffffffffffffffffffffffffff03821115610fc457610fc3610e5c565b5b82820190509291505056fea2646970667358221220d238486e7a84fcf3232c2efe578aca806827826331697232ab62d886523da2d864736f6c634300080c0033",
  "immutableReferences": {},
  "source": "// SPDX-License-Identifier: MIT\npragma solidity ^0.8.12;\n\nimport \"@openzeppelin/contracts/utils/math/SafeMath.sol\";\nimport \"@openzeppelin/contracts/token/ERC20/IERC20.sol\";\n\ncontract WTIAAuction {\n  using SafeMath for uint256;\n\n  IERC20 private token;\n\n  struct Auction {\n    // block.timestamp returns uint hence dates are in uint\n    uint256 startDate;\n    uint256 endDate;\n    uint256 startPrice;\n    address creator;\n    address token;\n    uint256 tokenAmount;\n  }\n\n  Auction auction;\n\n  /* ID would be passed through the UI or could be kept track adding a sperate variable\n  _endDate would be passed through UI as the time in seconds to be directly added to\n  current time an example of this would be 3600 for 1 Hour. Tokens need to be approved\n  before calling createAuction(). */\n\n  function createAuction(uint256 _endDate, uint256 _startPrice, address _token, uint256 _tokenAmount) public payable {\n    token = IERC20(_token);\n    auction = Auction(block.timestamp, (block.timestamp.add(_endDate)), _startPrice, msg.sender, _token, _tokenAmount);\n    transfer(_tokenAmount);\n  }\n\n  function transfer(uint256 _tokenAmount) internal {\n    require(token.balanceOf(msg.sender) > _tokenAmount);\n    token.transferFrom(msg.sender, address(this), _tokenAmount);\n  }\n\n  // Refreshes every second\n  function getPrice() public view returns (uint256) {\n    uint256 startPrice = uint256(auction.startPrice);\n    uint256 startDate = uint256(auction.startDate);\n    uint256 timeDifference = uint256(auction.endDate.sub(startDate)); // Total time difference\n    uint256 slope = uint256(startPrice.div(timeDifference)); // Cost to decrease per second\n    uint256 currentTime = uint256(block.timestamp); // Current Time\n    uint256 timePassed = uint256(currentTime.sub(startDate)); // Time in seconds since\n    uint256 priceDecreased = uint256(slope.mul(timePassed));\n    int256 price = int256(startPrice.sub(priceDecreased));\n    if (price < 0){\n      return 0;\n    } else return uint256(price);\n  }\n\n  // Pays out the buyer instantly and send the ether to the creator\n  function placeBid() public payable {\n    require(msg.value >= getPrice());\n    require(msg.sender != auction.creator);\n    (bool success, ) = auction.creator.call{value: msg.value}(\"\");\n    require(success, \"Transaction failed.\");\n    token.approve(address(this), token.balanceOf(address(this)));\n    token.transferFrom(address(this), msg.sender, token.balanceOf(address(this)));\n  }\n\n  // Only can be called by creator and if the price is 0 meaning ended\n  function expired() public {\n    require(msg.sender == auction.creator);\n    require(getPrice() == 0);\n    token.approve(address(this), token.balanceOf(address(this)));\n    // Trasnfer to auction.creator instead of msg.sender incase of an exploit\n    token.transferFrom(address(this), auction.creator, token.balanceOf(address(this)));\n  }\n}\n",
  "sourcePath": "/home/user/Documents/Dutch-Auction-Contract/contracts/WTIAAuction.sol",
  "compiler": {
    "name": "solc",
    "version": "0.8.12+commit.f00d7308.Emscripten.clang"
  },
  "schemaVersion": "3.4.1",
  "updatedAt": "2022-04-18T19:58:21.343Z",
  "networkType": "ethereum",
  "devdoc": {
    "kind": "dev",
    "methods": {},
    "version": 1
  },
  "userdoc": {
    "kind": "user",
    "methods": {},
    "version": 1
  }
}