{
  "contractName": "WTIAAuction",
  "abi": [
    {
      "inputs": [
        {
          "internalType": "uint256",
          "name": "id",
          "type": "uint256"
        },
        {
          "internalType": "uint256",
          "name": "_endDate",
          "type": "uint256"
        },
        {
          "internalType": "uint256",
          "name": "_startPrice",
          "type": "uint256"
        }
      ],
      "stateMutability": "nonpayable",
      "type": "constructor"
    },
    {
      "inputs": [
        {
          "internalType": "uint256",
          "name": "",
          "type": "uint256"
        }
      ],
      "name": "Auctions",
      "outputs": [
        {
          "internalType": "uint256",
          "name": "startDate",
          "type": "uint256"
        },
        {
          "internalType": "uint256",
          "name": "endDate",
          "type": "uint256"
        },
        {
          "internalType": "uint256",
          "name": "startPrice",
          "type": "uint256"
        },
        {
          "internalType": "address",
          "name": "creator",
          "type": "address"
        }
      ],
      "stateMutability": "view",
      "type": "function"
    },
    {
      "inputs": [
        {
          "internalType": "uint256",
          "name": "_id",
          "type": "uint256"
        }
      ],
      "name": "getPrice",
      "outputs": [
        {
          "internalType": "uint256",
          "name": "",
          "type": "uint256"
        }
      ],
      "stateMutability": "view",
      "type": "function"
    }
  ],
  "bytecode": "0x608060405234801561001057600080fd5b5060405161072438038061072483398181016040528101906100329190610152565b604051806080016040528042815260200161005a844261010160201b6101d21790919060201c565b81526020018281526020013373ffffffffffffffffffffffffffffffffffffffff1681525060008085815260200190815260200160002060008201518160000155602082015181600101556040820151816002015560608201518160030160006101000a81548173ffffffffffffffffffffffffffffffffffffffff021916908373ffffffffffffffffffffffffffffffffffffffff16021790555090505050505061022a565b6000818361010f91906101d4565b905092915050565b600080fd5b6000819050919050565b61012f8161011c565b811461013a57600080fd5b50565b60008151905061014c81610126565b92915050565b60008060006060848603121561016b5761016a610117565b5b60006101798682870161013d565b935050602061018a8682870161013d565b925050604061019b8682870161013d565b9150509250925092565b7f4e487b7100000000000000000000000000000000000000000000000000000000600052601160045260246000fd5b60006101df8261011c565b91506101ea8361011c565b9250827fffffffffffffffffffffffffffffffffffffffffffffffffffffffffffffffff0382111561021f5761021e6101a5565b5b828201905092915050565b6104eb806102396000396000f3fe608060405234801561001057600080fd5b50600436106100365760003560e01c8063e75722301461003b578063e8cd181f1461006b575b600080fd5b61005560048036038101906100509190610265565b61009e565b60405161006291906102a1565b60405180910390f35b61008560048036038101906100809190610265565b610182565b60405161009594939291906102fd565b60405180910390f35b6000806100de60008085815260200190815260200160002060000154600080868152602001908152602001600020600101546101e890919063ffffffff16565b9050600061010a82600080878152602001908152602001600020600201546101fe90919063ffffffff16565b905060004290506000610174610150836101426000808b8152602001908152602001600020600001548761021490919063ffffffff16565b6101e890919063ffffffff16565b600080898152602001908152602001600020600201546101e890919063ffffffff16565b905080945050505050919050565b60006020528060005260406000206000915090508060000154908060010154908060020154908060030160009054906101000a900473ffffffffffffffffffffffffffffffffffffffff16905084565b600081836101e09190610371565b905092915050565b600081836101f691906103c7565b905092915050565b6000818361020c919061042a565b905092915050565b60008183610222919061045b565b905092915050565b600080fd5b6000819050919050565b6102428161022f565b811461024d57600080fd5b50565b60008135905061025f81610239565b92915050565b60006020828403121561027b5761027a61022a565b5b600061028984828501610250565b91505092915050565b61029b8161022f565b82525050565b60006020820190506102b66000830184610292565b92915050565b600073ffffffffffffffffffffffffffffffffffffffff82169050919050565b60006102e7826102bc565b9050919050565b6102f7816102dc565b82525050565b60006080820190506103126000830187610292565b61031f6020830186610292565b61032c6040830185610292565b61033960608301846102ee565b95945050505050565b7f4e487b7100000000000000000000000000000000000000000000000000000000600052601160045260246000fd5b600061037c8261022f565b91506103878361022f565b9250827fffffffffffffffffffffffffffffffffffffffffffffffffffffffffffffffff038211156103bc576103bb610342565b5b828201905092915050565b60006103d28261022f565b91506103dd8361022f565b9250828210156103f0576103ef610342565b5b828203905092915050565b7f4e487b7100000000000000000000000000000000000000000000000000000000600052601260045260246000fd5b60006104358261022f565b91506104408361022f565b9250826104505761044f6103fb565b5b828204905092915050565b60006104668261022f565b91506104718361022f565b9250817fffffffffffffffffffffffffffffffffffffffffffffffffffffffffffffffff04831182151516156104aa576104a9610342565b5b82820290509291505056fea26469706673582212206380b94df7256b0839446484379dbd3aa09ba033478feb41f77f6403a3aeb0b064736f6c634300080d0033",
  "immutableReferences": {},
  "source": "// SPDX-License-Identifier: MIT\npragma solidity ^0.8.12;\n\nimport \"@openzeppelin/contracts/utils/math/SafeMath.sol\";\n\ncontract WTIAAuction {\n  using SafeMath for uint256;\n\n  struct Auction {\n    // block.timestamp returns uint hence dates are in uint\n    uint256 startDate;\n    uint256 endDate;\n    uint256 startPrice;\n    address creator;\n  }\n\n  mapping(uint256 => Auction) public Auctions;\n\n  /* ID would be passed through the UI or could be kept track adding a sperate variable\n  _endDate would be passed through UI as the time in seconds to be directly added to\n  current time an example of this would be 3600 for 1 Hour */\n  constructor(uint256 id, uint256 _endDate, uint256 _startPrice) {\n    Auctions[id] = Auction(block.timestamp, (block.timestamp.add(_endDate)), _startPrice, msg.sender);\n  }\n\n  function getPrice(uint256 _id) public view returns (uint256) {\n    uint256 timeDifference = uint256(Auctions[_id].endDate).sub(Auctions[_id].startDate); // Total time difference\n    uint256 slope = uint256(Auctions[_id].startPrice).div(timeDifference); // Cost to decrease per second\n    uint256 currentTime = block.timestamp; // Current Time\n    uint256 price = uint256(Auctions[_id].startPrice).sub(slope.mul(Auctions[_id].startDate).sub(currentTime));\n    return uint256(price);\n  }\n}\n",
  "sourcePath": "/home/user/Documents/Dutch-Auction/contracts/WTIAAuction.sol",
  "compiler": {
    "name": "solc",
    "version": "0.8.13+commit.abaa5c0e.Emscripten.clang"
  },
  "schemaVersion": "3.4.1",
  "updatedAt": "2022-04-14T19:20:43.432Z",
  "devdoc": {
    "kind": "dev",
    "methods": {},
    "version": 1
  },
  "userdoc": {
    "kind": "user",
    "methods": {},
    "version": 1
  }
}